:02000004085F93
:10B0000000B05F08FCFF5F0800000600200005019B
:08B0100004010D17000000000F
:10B018001348144908B5884205D0134A824202D021
:10B02800124B121A98471248124A0021124B121A50
:10B03800984712481249884205D0124A824202D0E3
:10B048000A4B121A984710481049884205D0104AEE
:10B05800824202D0054B121A9847014808BD00BF2A
:10B0680084AC071088F75F08FCAC07102D0D111091
:10B07800FCAC0710FCAF0710A10E111018B93F0265
:10B08800A8B05F0820B93F0220B93F02B0B05F08FE
:0CB09800F8FF3F0219B05F080000000044
:08B0A8009CB05F0830F83F0284
:10B0B00081F0004102E000BF83F0004330B54FEA69
:10B0C00041044FEA430594EA050F08BF90EA020FD6
:10B0D0001FBF54EA000C55EA020C7FEA645C7FEA69
:10B0E000655C00F0E2804FEA5454D4EB5555B8BF8C
:10B0F0006D420CDD2C4480EA020281EA030382EAFD
:10B10000000083EA010180EA020281EA0303362D8E
:10B1100088BF30BD11F0004F4FEA01314FF4801C61
:10B120004CEA113102D0404261EB410113F0004F73
:10B130004FEA03334CEA133302D0524263EB43032A
:10B1400094EA050F00F0A780A4F10104D5F1200EC8
:10B150000DDB02FA0EFC22FA05F2801841F1000123
:10B1600003FA0EF2801843FA05F359410EE0A5F1F7
:10B1700020050EF1200E012A03FA0EFC28BF4CF028
:10B18000020C43FA05F3C01851EBE37101F00045DE
:10B1900007D54FF0000EDCF1000C7EEB00006EEBEB
:10B1A0000101B1F5801F1BD3B1F5001F0CD3490875
:10B1B0005FEA30004FEA3C0C04F101044FEA4452CC
:10B1C00012F5800F80F09A80BCF1004F08BF5FEA53
:10B1D000500C50F1000041EB045141EA050130BD33
:10B1E0005FEA4C0C404141EB0101013C28BFB1F545
:10B1F000801FE9D291F0000F04BF01460020B1FA90
:10B2000081F308BF2033A3F10B03B3F120020CDA62
:10B210000C3208DD02F1140CC2F10C0201FA0CF040
:10B2200021FA02F10CE002F11402D8BFC2F1200CA5
:10B2300001FA02F120FA0CFCDCBF41EA0C0190405B
:10B24000E41AA2BF01EB0451294330BD6FEA0404A4
:10B250001F3C1CDA0C340EDC04F11404C4F120028F
:10B2600020FA04F001FA02F340EA030021FA04F3A1
:10B2700045EA030130BDC4F10C04C4F1200220FAF8
:10B2800002F001FA04F340EA0300294630BD21FA36
:10B2900004F0294630BD94F0000F83F4801306BFFC
:10B2A00081F480110134013D4EE77FEA645C18BFF0
:10B2B0007FEA655C29D094EA050F08BF90EA020F87
:10B2C00005D054EA000C04BF1946104630BD91EA7F
:10B2D000030F1EBF0021002030BD5FEA545C05D182
:10B2E0004000494128BF41F0004130BD14F58004C1
:10B2F0003CBF01F5801130BD01F0004545F0FE4135
:10B3000041F470014FF0000030BD7FEA645C1ABF69
:10B31000194610467FEA655C1CBF0B46024650EAA0
:10B32000013406BF52EA033591EA030F41F40021CC
:10B3300030BD00BF90F0000F04BF0021704730B552
:10B340004FF4806404F132044FF000054FF0000127
:10B3500050E700BF90F0000F04BF0021704730B5E8
:10B360004FF4806404F1320410F0004548BF4042BD
:10B370004FF000013EE700BF42004FEAE2014FEA12
:10B3800031014FEA02701FBF12F07F4393F07F4FED
:10B3900081F06051704732F07F4208BF704793F0F0
:10B3A0007F4F04BF41F40021704730B54FF4607403
:10B3B00001F0004521F000411CE700BF50EA010206
:10B3C00008BF704730B54FF000050AE050EA0102AF
:10B3D00008BF704730B511F0004502D5404261EB1F
:10B3E00041014FF4806404F132045FEA915C3FF460
:10B3F000D8AE4FF003025FEADC0C18BF03325FEAFD
:10B40000DC0C18BF033202EBDC02C2F1200300FAAD
:10B4100003FC20FA02F001FA03FE40EA0E0021FAD2
:10B4200002F11444BDE600BF10F8012B11F8013BF6
:10B43000012A28BF9A42F7D0D01A7047034613F862
:10B44000012B002AFBD1181A0138704770B503F0A0
:10B450005DF90025054E064CA41BA408AC4200D1A2
:10B4600070BD56F8043B98470135F7E7D0FF3F021F
:10B47000F8FF3F0200F056B808B500F079F8BDE8D3
:10B48000084003F0FBB800F01DBF00F01BBF00F048
:10B4900027BF00000C2008B5024A034900F0B4FDA4
:10B4A000FEE700BF55C33F0240F83F020078B0FA04
:10B4B00080F0400970470123037070477047000017
:10B4C00010B50446094B036001F05EFC214601F013
:10B4D000A7FE03F043F803F033F82046044B40F88E
:10B4E000043B01F027FD204610BD00BFF4F93F02E8
:10B4F000DCF93F0210B50446FFF7E2FF20462421A5
:10B50000FFF7C5FF204610BD0EB403B503AB53F8DB
:10B51000042B0021019302F05CFB02B05DF804EB08
:10B5200003B0704738B503F019F84FF4165103F023
:10B5300003F8002000F0F2FA42F2107504460020F1
:10B5400000F0ECFA001B61F10001A84271F1000368
:10B5500007D203F003F802F0F6FF10B900F0D2FDB5
:10B56000EDE702F0FBFFBDE8384002F0ECBF000061
:10B57000F8B5324E324D304600F049FA07EE900AE7
:10B58000F8EEE77AC5ED007A02F0E8FF0446286895
:10B59000FFF7F2FE2B4D02460B4620462A49FFF7E5
:10B5A000B3FF284600F033FA07EE900AF8EEE77A88
:10B5B000264FC7ED007A02F0D1FF04463868FFF746
:10B5C000DBFE02460B4620462149FFF79DFF4FF464
:10B5D0007A7000F0D9FE304600F0F5F907EE900AD7
:10B5E000F8EEE77A1B4EC6ED007A02F0B7FF04468C
:10B5F0003068FFF7C1FE02460B4620461649FFF7AA
:10B6000083FF284600F0DFF907EE900AF8EEE77AAC
:10B61000124DC5ED007A02F0A1FF04462868FFF73D
:10B62000ABFE0B4602460E492046FFF76DFFBDE814
:10B63000F8404FF47A7000F0A7BE00BF44AE071088
:10B6400030AE071048AE071055F83F0234AE071071
:10B6500099F83F0228AE0710DDF83F022CAE071024
:10B660001DF93F0270B51426D0E90053044606FBCD
:10B670000356AE4204D0284602F016FB1435F8E714
:10B68000206800F02DFE204670BD8842F8B50446C3
:10B690000D46164616D9904215D2A2F11406751A17
:10B6A000A1F114072C44B7421CD02CB131462046DE
:10B6B00002F063FB337C2374304602F0F5FA143E4B
:10B6C000143CF0E70ED0B5420CD02CB129462046F0
:10B6D00002F053FB2B7C2374284602F0E5FA143564
:10B6E0001434F0E7F8BD00232DE9F041C0E9003340
:10B6F00083604F6804469F420E4624DD4FF01408D5
:10B7000008FB07F000F0DEFD0546E0B1D4E90012C9
:10B7100008FB0212FFF7B9FF206800F0E1FD256089
:10B72000A760D6E9007308FB0378B84509D039460D
:10B73000284602F03CFB3B7C143505F8043C1437EA
:10B74000F3E7736863602046BDE8F08170B50221BD
:10B750008EB0364D364800F034F90321354800F0FC
:10B7600030F9284602F018FE334C344B40F25B723D
:10B7700000932046324B334900F07CF8324B21468F
:10B780002360C4F8D0500023304A314800F08EF8CE
:10B790002146002400232F4A2F4800F087F82F4B22
:10B7A0002F4AC3E900449A60022000F065FC21465C
:10B7B000012000F07DFCCDE90244049402F0CEFEAD
:10B7C000284C0546264602A905A8FFF78CFF05A9C7
:10B7D00008A8FFF788FF244B08A946F8043B0BA8EC
:10B7E000FFF781FF0BAA1E21304601F0B9FD0BA81F
:10B7F000FFF738FF08A8FFF735FF1C4B25622360D1
:10B8000005A8FFF72FFF1A4B236002F0A7FE4FF4A5
:10B81000165102F091FE01F0B7FA214601F0BAFC90
:10B8200002A8FFF71FFF0EB070BD00BF08AD0710E4
:10B8300044AE071048AE071054AD07107BF93F0225
:10B840005DF93F026BF93F0230FA3F029CF93F027B
:10B8500038AE0710B6F93F0224AD0710FCAC071054
:10B860000000FFFF30AD0710DCF93F0274FB3F0220
:10B87000F4F93F0202810B4A30B5C0E90323039B70
:10B88000094D43610023C0E90051C0E92F33C0E9ED
:10B890003133C0E90633C0F8CC300384A0F8B830A7
:10B8A00030BD00BF3BFB3F020CFA3F0210B5C0E9C0
:10B8B0000012037210BD08B5D0F8D00003685B6BAE
:10B8C0009847003818BF012008BDF8B506460F4656
:10B8D0001446C4B1D6F8D00003685B6B984708B92A
:10B8E0000020F8BDFA2C2546A8BFFA25D6F8D000CE
:10B8F0002A4603683946DB68984783B2E41A9D42BA
:10B90000A4B2E6D0ECE70120EBE770472DE9F8435D
:10B910000646884691461F461D460024D6F8D000AC
:10B9200003685B6B9847D0B1002D18DBD6F8D000C8
:10B9300003681B69984760B1D6F8D00003685B695B
:10B94000984708F804000134A4B24C4507D03D469E
:10B95000ECE70A200A3D2DB200F016FDDEE7204696
:10B96000BDE8F88370B5044600F122059622002157
:10B97000284603F0B2F96168284603F0FCF9D4F8D0
:10B98000D0002946036822899E6A0023B047003808
:10B9900018BF012070BD10B50446D421FFF777FD14
:10B9A000204610BD10B50446D0F8D00003685B6B8C
:10B9B000984720B1D4F8D00003681B6B984701204A
:10B9C00010BD0160704710B504460121008802F0E7
:10B9D0000DFF0021208802F01AFF022000F082F8FB
:10B9E0000121208802F013FF052000F07BF8208859
:10B9F000002102F00CFF2088002102F0F7FE012157
:10BA0000208802F01DFF3A2390FBF3F010BD10B523
:10BA100004460121008802F0E9FE0021208802F09E
:10BA2000F6FE022000F05EF80121208802F0EFFE11
:10BA3000052000F057F82088002102F0E8FE208859
:10BA4000002102F0D3FE0121208802F0F9FE9423A8
:10BA500090FBF3F010BD000009B504480068044BEA
:10BA600003441B685B6C029309BD000084AC0710A3
:10BA70003000000009B504480068044B03441B680B
:10BA80009B6C029309BD000084AC071030000000DD
:10BA900009B504480068044B03441B68DB6C02933F
:10BAA00009BD000084AC07103000000009B504484F
:10BAB0000068044B03441B685B6D029309BD0000E2
:10BAC00084AC07103000000009B504480068044B3E
:10BAD00003441B685B68029309BD000084AC071037
:10BAE0000000000009B504480068044B03441B68CB
:10BAF000DB68029309BD000084AC07100000000061
:10BB000009B504480068044B03441B685B69029351
:10BB100009BD000084AC07100000000009B504480E
:10BB20000068044B03441B68DB6D029309BD0000F1
:10BB300084AC07100000000009B504480068044BFD
:10BB400003441B689B68029309BD000084AC071086
:10BB50001400000009B504480068044B03441B6846
:10BB6000DB68029309BD000084AC071014000000DC
:10BB700009B504480068044B03441B681B69029321
:10BB800009BD000084AC07101400000009B504488A
:10BB90000068044B03441B68DB6C029309BD000082
:10BBA00084AC07101400000009B504480068044B79
:10BBB00003441B681B6A029309BD000084AC071094
:10BBC0001000000009B504480068044B03441B68DA
:10BBD0005B6A029309BD000084AC071010000000EE
:10BBE00009B504480068044B03441B689B6A029330
:10BBF00009BD000084AC07101000000009B504481E
:10BC00000068044B03441B68DB6A029309BD000013
:10BC100084AC07101000000009B504480068044B0C
:10BC200003441B681B6B029309BD000084AC071022
:10BC30001000000009B504480068044B03441B6869
:10BC40005B6B029309BD000084AC0710100000007C
:10BC500009B504480068044B03441B681B6C02933D
:10BC600009BD000084AC07101000000009B50448AD
:10BC70000068044B03441B685B69029309BD000024
:10BC800084AC07105400000009B504480068044B58
:10BC900003441B685B69029309BD000084AC071074
:10BCA0004C00000009B504480068044B03441B68BD
:10BCB0001B6A029309BD000084AC07104C00000011
:10BCC00009B504480068044B03441B689B6A02934F
:10BCD00009BD000084AC07104C00000009B5044801
:10BCE0000068044B03441B689B68029309BD000075
:10BCF00084AC07105000000009B504480068044BEC
:10BD000003441B68DB68029309BD000084AC071084
:10BD10005000000009B504480068044B03441B6848
:10BD20009B69029309BD000084AC0710200000004D
:10BD300009B504480068044B03441B68DB6902939F
:10BD400009BD000084AC07102000000009B50448BC
:10BD50000068044B03441B681B6A029309BD000082
:10BD600084AC07102000000009B504480068044BAB
:10BD700003441B689B6A029309BD000084AC071052
:10BD80002000000009B504480068044B03441B6808
:10BD90001B6B029309BD000084AC0710200000005B
:10BDA00009B504480068044B03441B689B6B02936D
:10BDB00009BD000084AC07102000000009B504484C
:10BDC0000068044B03441B68DB69029309BD000053
:10BDD00084AC07101800000009B504480068044B43
:10BDE00003441B681B6A029309BD000084AC071062
:10BDF0001800000009B504480068044B03441B68A0
:10BE00009B68029309BD000084AC07102400000069
:10BE100009B504480068044B03441B68DB680293BF
:10BE200009BD000084AC07102400000009B50448D7
:10BE30000068044B03441B681B69029309BD0000A2
:10BE400084AC07102400000009B504480068044BC6
:10BE500003441B685B69029309BD000084AC0710B2
:10BE60002400000009B504480068044B03441B6823
:10BE70009B69029309BD000084AC071024000000F8
:10BE800009B504480068044B03441B68DB6902934E
:10BE900009BD000084AC07102400000009B5044867
:10BEA0000068044B03441B681B6A029309BD000031
:10BEB00084AC07102400000009B504480068044B56
:10BEC00003441B689B6A029309BD000084AC071001
:10BED0002400000009B504480068044B03441B68B3
:10BEE000DB6A029309BD000084AC07102400000047
:10BEF00009B504480068044B03441B681B6C02939B
:10BF000009BD000084AC07102400000009B50448F6
:10BF10000068044B03441B681B68029309BD0000C2
:10BF200084AC07103400000009B504480068044BD5
:10BF300003441B685B68029309BD000084AC0710D2
:10BF40003400000009B504480068044B03441B6832
:10BF50009B68029309BD000084AC07103400000008
:10BF600009B504480068044B03441B681B6902932D
:10BF700009BD000084AC07103400000009B5044876
:10BF80000068044B03441B685B69029309BD000011
:10BF900084AC07103400000009B504480068044B65
:10BFA00003441B689B69029309BD000084AC071021
:10BFB0003400000009B504480068044B03441B68C2
:10BFC000DB69029309BD000084AC07103400000057
:10BFD00009B504480068044B03441B681B6A0293BC
:10BFE00009BD000084AC07103400000009B5044806
:10BFF0000068044B03441B689B6A029309BD000060
:10C0000084AC07103400000009B504480068044BF4
:10C0100003441B685B6B029309BD000084AC0710EE
:10C020004800000009B504480068044B03441B683D
:10C030001B6D029309BD000084AC0710480000008E
:10C0400009B504480068044B03441B68DB6E029387
:10C0500009BD000084AC07104800000009B5044881
:10C060000068044B03441B681B6F029309BD00006A
:10C0700084AC07104800000009B504480068044B70
:10C0800003441B685B68029309BD000084AC071081
:10C090000800000009B504480068044B03441B680D
:10C0A0005B69029309BD000084AC07100800000022
:10C0B00009B504480068044B03441B68DB6A02931B
:10C0C00009BD000084AC07100800000009B5044851
:10C0D0000068044B03441B68D3F88830029309BD01
:10C0E00084AC07100800000009B504480068044B40
:10C0F00003441B68D3F89430029309BD84AC071045
:10C100000800000009B504480068044B03441B689C
:10C110009B68029309BD000084AC07102C0000004E
:10C1200009B504480068044B03441B68DB6B0293A9
:10C1300009BD000084AC07102C00000009B50448BC
:10C140000068044B03441B685B68029309BD000050
:10C1500084AC07102800000009B504480068044BAF
:10C1600003441B689B68029309BD000084AC071060
:10C170002800000009B504480068044B03441B680C
:10C18000DB68029309BD000084AC071028000000A2
:10C1900009B504480068044B03441B681B690293FB
:10C1A00009BD000084AC07102800000009B5044850
:10C1B0000068044B03441B685B69029309BD0000DF
:10C1C00084AC07102800000009B504480068044B3F
:10C1D00003441B689B69029309BD000084AC0710EF
:10C1E0002800000009B504480068044B03441B689C
:10C1F000DB69029309BD000084AC07102800000031
:10C2000009B504480068044B03441B681B6A029389
:10C2100009BD000084AC07102800000009B50448DF
:10C220000068044B03441B681B6B029309BD0000AC
:10C2300084AC07102800000009B504480068044BCE
:10C2400003441B685B6B029309BD000084AC0710BC
:10C250002800000009B504480068044B03441B682B
:10C260001B6C029309BD000084AC0710280000007D
:10C2700009B504480068044B03441B685B6C0293D7
:10C2800009BD000084AC07102800000009B504486F
:10C290000068044B03441B685B6D029309BD0000FA
:10C2A00084AC07102800000009B504480068044B5E
:10C2B00003441B689B6D029309BD000084AC07100A
:10C2C0002800000009B504480068044B03441B68BB
:10C2D0001B68029309BD000084AC07100400000035
:10C2E00009B504480068044B03441B685B6802936B
:10C2F00009BD000084AC07100400000009B5044823
:10C300000068044B03441B689B68029309BD00004E
:10C3100084AC07100400000009B504480068044B11
:10C3200003441B685B6A029309BD000084AC0710DC
:10C330000400000009B504480068044B03441B686E
:10C34000DB6B029309BD000084AC07100400000001
:10C3500009B504480068044B03441B681B6C029336
:10C3600009BD000084AC07100400000009B50448B2
:10C370000068044B03441B685B6C029309BD00001A
:10C3800084AC0710040000000021FFF783BE38B51D
:10C39000046805467CB16368013B63605BB9236850
:10C3A00020469B689847A368013BA3601BB923689C
:10C3B0002046DB689847284638BD10B543680446D8
:10C3C000013B436063B903689B689847A368013BDE
:10C3D000A3602BB923682046BDE81040DB681847EE
:10C3E00010BD70B50446D0E9005305EB0316AE420C
:10C3F00004D0284601F058FC1035F8E72068FFF714
:10C400006FFF204670BD0000002302480360FFF765
:10C4100023BB00BF4CAE0710002240681146FFF757
:10C42000EFBE002240681146FFF706BF00224068B9
:10C43000FFF7F4BE0022406881F00101FFF7D2BE91
:10C44000002340681A461946FFF7BEBE0023406825
:10C450001A461946FFF7AABE002240681146FFF7A8
:10C4600097BE002240681146FFF776BE00220221E7
:10C470004068FFF77FBE002340681A46FFF75EBEA4
:10C480000322024B5A60024A1A60704750AE0710EE
:10C490005CFA3F027047F8B5064615460C468F1801
:10C4A000BC4206D0336830469B6814F8011B98479D
:10C4B000F6E72846F8BD0022007CFFF775BB002197
:10C4C000007CFFF77FBB0021007CFFF789BB0021C8
:10C4D000007CFFF793BB0021007CFFF79DBB10B5EC
:10C4E00004461421FEF7D3FF204610BD38B504469C
:10C4F00015464FF47A730022C4E90123094B08461C
:10C50000217423602946FFF7A3FBBF3008D16B6974
:10C51000DB0705D56868FFF7E3FEE868FFF7E0FE94
:10C52000204638BDA0FA3F02FF210022044B012023
:10C53000C3E9001264211A61C3E90201704700BF18
:10C5400058AE0710704710B504461821FEF79FFF3C
:10C55000204610BDF0B5037D0E46062B4FF00004BB
:10C560008DB000F1040712D000F1080515F8011D87
:10C570000A22304601F00FFBAF42044419D0002CD0
:10C58000F4D02E21304601F0F7FA0444EEE72F23D1
:10C590006A4639460A208DF80040FFF775FB684669
:10C5A000FEF74CFF3368024669463046DB68984721
:10C5B000044620460DB0F0BD10B50446044B1122D0
:10C5C000002140F8043B02F088FB204610BD00BF6C
:10C5D000CCFA3F020346074A10B543F8042B01F199
:10C5E000100251F8044B914243F8044BF9D10A78F8
:10C5F0001A7010BDCCFA3F02037D042B04D14068B1
:10C60000003818BF01207047062B07D143683BB99B
:10C6100083682BB9C3681BB90069F1E70020704734
:10C620000120704710B59DF8084044EA032343EA0F
:10C630000242042342EA01614160037510BD00001B
:10C6400007B5064B0360CB7800938B784A7809785E
:10C65000FFF7E8FF03B05DF804FB00BFCCFA3F0230
:10C66000012200F1100313F8101C1846012908D10B
:10C6700053F8041C02EB4102013A03F11003F2D11A
:10C680007047022904BF53F8041C5218F4E70EB493
:10C69000F0B588B0102100AF07F1340555F8042B30
:10C6A00004462B4678187A60FD60FFF735FE0F28A8
:10C6B0007A681AD900F1080323F007036E46ADEB40
:10C6C000030D411C2B466846FD60FFF725FE021E48
:10C6D00004DD2368694620469B689847B5462037A5
:10C6E000BD46BDE8F04003B070470028F7D023688E
:10C6F00002469B68204607F110019847EFE738B5DE
:10C700000B68044603604D6843689D4208D015B12C
:10C710006B6801336B60606808B1FFF74EFE6560BF
:10C7200038BD07B503688DF8071001229B680DF12D
:10C730000701984703B05DF804FB0B461146002241
:10C7400010B50446C0E9002283600BB9204610BD35
:10C75000FFF7D5FFFAE78368EBB11A78032A1AD8F6
:10C76000DFE802F00417021B0520704702685B68CF
:10C770005268D05C2D2812D0A0F13003092B0ED9BD
:10C7800074280ED066280CD0A0F16E035842584190
:10C790007047062070470020704704207047032030
:10C7A00070470220704710B50446FFF7D4FF0228F7
:10C7B0000ED0C31EDBB2012B14D82268A3685068C8
:10C7C0005B680A22BDE810400021184402F086BBD5
:10C7D0002268A36852685B68D05CA0F17403584279
:10C7E000584110BD0020FCE738B500230446C0E9DD
:10C7F00000330E48C4E90203A9B10B78032B06D01D
:10C800008BB9136858684B68C35C6E2B07D01368EC
:10C810004D6858688B6828445B1BA060E360114634
:10C820002046FFF76CFF204638BD00BF3BFB3F02B0
:10C8300038B500250B4604461146C0E90055C0E94D
:10C840000255C0E904554BB11A78012A06D103F10B
:10C850001002DB6882604361FFF751FF204638BD5C
:10C8600010B54369044663B18068013BE060103055
:10C87000A0602061636113B1FFF7F2FEA0600120A8
:10C8800000E0184610BD10B57D210446FFF749FFB2
:10C8900001232046237110BD08B50379012B02D076
:10C8A000022B04D008BD2C21FFF73BFFFAE73A2109
:10C8B000FAE710B50446FFF7EFFF20467B21FFF7AC
:10C8C00030FF00232046237110BD000013B504463D
:10C8D0000191FFF7E1FF23682046DB68019A0349D5
:10C8E000984701232046237102B010BD30FC3F025F
:10C8F00013B504460191FFF7CFFF23682046DB689C
:10C90000019A0349984701232046237102B010BDC4
:10C91000D8FA3F022DE9F0470D4690462221044601
:10C920002F46FFF7FEFEDFF8A490A8444745BA461D
:10C930003DD017F8016B222E06D05C2E04D0304675
:10C9400002F09CF90028F1D12368294620469B6813
:10C95000AAEB050298475C212046FFF7E2FE0D2E68
:10C960000AD8072E1CD9A6F10803052B18D8DFE832
:10C9700003F00D0F11171315222E01D05C2E0FD1CD
:10C9800031462046FFF7CDFE3D46CFE76221F8E76E
:10C990007421F6E76E21F4E76621F2E77221F0E7F1
:10C9A0002368324649462046DB689847ECE7BD429B
:10C9B00005D02368294620469B687A1B9847222188
:10C9C0002046FFF7AEFEBDE8F08700BFDBFA3F026E
:10C9D00013B50446CDE90021FFF75EFFDDE9002134
:10C9E0002046FFF797FF02232046237102B010BDB7
:10C9F00013B50446CDE90021FFF74EFFDDE9002124
:10CA00002046FFF787FF01232046237102B010BDA7
:10CA10008842F8B504460D46164614D9904213D202
:10CA2000A2F11006751AA1F110072C44B74218D0D4
:10CA30001CB13146204601F0A0F9304601F034F92E
:10CA4000103E103CF2E70CD0B5420AD01CB129468A
:10CA5000204601F092F9284601F026F910351034ED
:10CA6000F2E7F8BD70B50E1E054611DD3001FFF787
:10CA700029FC044658B1D5E9001201EB0212FFF778
:10CA8000C7FF2868FFF72CFC01202C60AE6070BD4A
:10CA90000024F6E710B5044680680368DB68984711
:10CAA000E3681844E06010BD7047084611B10B6898
:10CAB0005B6818477047704770477047704738B5D4
:10CAC00004460D4600682E2102F04BF92368C31A74
:10CAD0002B6023B1037803B101302368206018462E
:10CAE00038BD10B504461021FEF7D1FC204610BD1C
:10CAF00010B504460421FEF7CAFC204610BD10B54F
:10CB000004460421FEF7C3FC204610BDFEF7C0BF5B
:10CB100008B5FEF789FCB0FA80F0400908BD7047FF
:10CB200010B50C4601F01AFD844205D101F016FD46
:10CB3000BDE8104001F004BD01F0F4FE844205D1CF
:10CB400001F0F0FEBDE8104001F09DBC2CB123685F
:10CB50002046BDE810405B68184710BD0B680360B5
:10CB60004B68436013B15A6801325A60704713B57D
:10CB7000044608460191FEF761FC024620460199F1
:10CB800002B0BDE81040FFF733BF13B504460846B6
:10CB90000191FEF753FC0246204623680199DB68A9
:10CBA00002B0BDE81040184707B503688DF80710BC
:10CBB0000122DB680DF10701984703B05DF804FB23
:10CBC0002DE9F74F4FF0140AD0E900841746454687
:10CBD0000AFB04F40093174BA4105C43002C21DDE6
:10CBE00066100AFB06F005EB0009B9F804B03A46F6
:10CBF0005F4528BF5A462858019102F0C4F8002822
:10CC00004FF0010301990BD15F4503D1009A1370D6
:10CC10003446E3E7FCD9A61B09F11405013EF7E70A
:10CC2000F9DBF5E7A5EB08050248AD10684303B052
:10CC3000BDE8F08FCDCCCCCC7FB50369057E0191EA
:10CC400003B3F9B1002600F10C04039603A901A86F
:10CC5000FFF735FF0146A8B10DF10B032046039AFB
:10CC60008DF80B60FFF7ACFF9DF80B3053B12368D4
:10CC7000142404FB0034B4F906300834002BA8BF98
:10CC8000DDB2E3E7284604B070BD0EB4F0B58CB059
:10CC900000AF07F1440555F8042B04462B4620212C
:10CCA00007F110007A60FD60FFF736FB1F287A68F5
:10CCB0001AD900F1080323F007036E46ADEB030D0C
:10CCC000411C2B466846FD60FFF726FB021E04DD73
:10CCD000236869462046DB689847B5463037BD462D
:10CCE000BDE8F04003B070470028F7D02368024643
:10CCF000DB68204607F110019847EFE710B5084CB4
:10CD0000D4E88F3FDB0709D42046FEF7CFFB28B1DC
:10CD10002046FEF7D0FB034801F0AAFF024810BDF1
:10CD200070AE071027D33F0288AC071010B5084C2F
:10CD3000D4E88F3FDB0709D42046FEF7B7FB28B1C4
:10CD40002046FEF7B8FB034801F092FF024810BDF1
:10CD500074AE07108FD33F028CAC071038B5002596
:10CD60000446C0E90055C0E904558560856140F876
:10CD7000245FFEF771FEFFF7C1FFE061FFF7D6FF0A
:10CD800025732062204638BD10B50A4CD4E88F3F89
:10CD9000DB070CD42046FEF789FB40B10648FFF7BD
:10CDA000DDFF2046FEF787FB044801F061FF0248E3
:10CDB00010BD00BF6CAE07107CAE07106DDB3F02EC
:10CDC0000023024A02490348FFF748B955D93F02F8
:10CDD000E1D83F0261D83F0200231A46194618469F
:10CDE000FFF73CB937B504468D686846FFF7B6FED5
:10CDF0006A4629462046FFF71BFD01A8FFF7C7FA40
:10CE0000204603B030BD37B50446CD686846FFF70D
:10CE1000A5FE6A4629462046FFF7E6FC01A8FFF773
:10CE2000B6FA204603B030BD37B504460D696846F2
:10CE3000FFF794FE6A4629462046FFF77EFC01A8CC
:10CE4000FFF7A5FA204603B030BD000070B58AB0E8
:10CE50000D46014604A8FFF7C5FF144E04A8FFF7CE
:10CE6000FFFCE8B1684604A9FFF7CDFF3146029800
:10CE7000FFF74EFE044610B12C1E18BF012401A876
:10CE8000FFF785FA002CE9D0684604A9FFF7CCFF2C
:10CE90006846FFF788FC286001A8FFF778FADDE70D
:10CEA00005A8FFF774FA0AB070BD00BFE1FA3F02AF
:10CEB00037B50C46134920461546FEF7B5FA50B96A
:10CEC00001F04CFB4FF4165101F036FB03B0BDE806
:10CED000304001F043BB20460B49FEF7A5FA78B974
:10CEE0004FF4165301A928460193FFF7AFFF01F055
:10CEF00019FD019901F0C4FA01F014FD03B030BD31
:10CF00000020FBE7E6FA3F02EDFA3F0270B5142677
:10CF1000D0E90053044606FB0356AE4205D005F1A6
:10CF20000800FFF7F3FF1435F7E72068FFF7D8F99B
:10CF3000204670BD10B504460C30FFF7E7FF2046D1
:10CF4000FFF74FFA204610BD10B50446034B40F8DA
:10CF5000043BFFF7EFFF204610BD00BFDCF93F02A6
:10CF600010B50446FFF7F0FF20462421FEF78FFAA4
:10CF7000204610BD10B50446024B0360FFF7E4FFE6
:10CF8000204610BD8CFB3F0210B50446FFF7F2FFB0
:10CF900020462421FEF77BFA204610BD0A6810B512
:10CFA00002604A6842600022C0E9022202618C6885
:10CFB0008A608460CC68CA60C4600C690A610461DC
:10CFC00010BD0022C0E90022826010B50C680A6022
:10CFD00004604C684A6044608C688A60846010BD5C
:10CFE00010B5044603681868FEF760FD204610BDC2
:10CFF0002DE9F04F87B003931C4B80465B68894650
:10D00000C3F3080316466BB9FFF7BEFE044600F1F2
:10D010002403406A0593FFF779FD237B2BB105A814
:10D02000FFF7DEFF07B0BDE8F08F01235FFA89F953
:10D030002373D4E9005305EB830AAA4512D055F8AF
:10D04000047B3146381DFFF7F7FD8145F5D3039A80
:10D050003B680092D3F808B04A463346414638460A
:10D06000D847EAE700232373D9E700BF00ED00E0CB
:10D070002DE9F74F9B461A4B80465B688946C3F300
:10D08000080316466BB9FFF77FFE044600F1240340
:10D09000406A0193FFF73AFD237B2BB101A8FFF70C
:10D0A0009FFF03B0BDE8F08F0123F6B22373D4E9EC
:10D0B000005305EB830A55450ED055F8047B5946BD
:10D0C000381DFFF7B9FD8642F5D33B684A46414615
:10D0D0003846DB689847EEE700232373DEE700BF9E
:10D0E00000ED00E02DE9F341164B05465B680F4665
:10D0F000C3F308031BBBFFF747FE044600F12403FC
:10D10000406A0193FFF702FDD4E90063462406EB71
:10D110008308B04509D101A8FFF762FFA542B4BF5B
:10D120000020012002B0BDE8F08156F8040B39461A
:10D130000430FFF781FD8442A8BF0446E9E70020E0
:10D14000F0E700BF00ED00E0F8B5D0E901539D42E3
:10D1500004460E460DDB6F1C002F006804DDB9008D
:10D16000FFF7CCF818B9F8BDFFF7BAF80020206037
:10D17000A7602768626807EB85019200A2EB850231
:10D18000081D01F090FD47F8256063680120013318
:10D190006360E8E737B5044600F12403406A019371
:10D1A0000D46FFF7B3FCD4E9003203EB8202934251
:10D1B00019460AD009680433A942F8D101A8FFF73B
:10D1C0000FFF0025284603B030BD29462046FFF753
:10D1D000BBFF05460028F1D06368012B01D1FFF7A2
:10D1E000EFFD01A8FFF7FCFEECE70B4670B5044627
:10D1F000D0E9000200EB820282420FD001461D6896
:10D2000051F8046BAE4207D1521A01F04CFD0120D7
:10D210006368013B636070BD0846EDE70020FAE7F4
:10D220001FB5044600F12403406A01910393FFF700
:10D230006DFC204601A9FFF7D8FF18B163680BB950
:10D24000FFF7CAFD03A8FFF7CBFE04B010BD1823FB
:10D2500070B50446D0E9045603FB0656AE4215D01D
:10D26000204605F11001FFF7C0FF63680BB9FFF717
:10D27000B3FDE06929690368DB689847696919B1FA
:10D28000206A0368DB6898471835E7E71826D4E971
:10D29000045306FB0356AE4204D0284600F004FDBA
:10D2A0001835F8E70023636170BD73B50446FFF7D6
:10D2B00093FD04F12403606A0193FFF727FC2046E5
:10D2C000FFF7C5FF01A8FFF78BFE606A08B1FEF704
:10D2D000D1FBD4E90453182606FB0356AE4204D012
:10D2E000284600F0E1FC1835F8E72069FEF7F8FF62
:10D2F0002068FEF7F5FF204602B070BD0148FFF739
:10D30000D4BF00BF7CAE07108842F8B504460D4676
:10D31000164615D9904214D2A2F11406751AA1F13D
:10D3200014072C44B7421AD01CB131462046FFF7EF
:10D3300035FE06F10800FFF7E9FD143E143CF1E765
:10D340000DD0B5420BD01CB129462046FFF726FE72
:10D3500005F10800FFF7DAFD14351434F1E7F8BDE4
:10D360002DE9F04F90460023462295B00391D8F85E
:10D37000041004469942C0E90033C0E90233C0E911
:10D380000433CDE9083302760A9323DCD8E9005749
:10D39000142303FB0757AF423BD029460BA800F0EC
:10D3A000ECFC0BA90FA8099E00F0E7FCDDE90913CE
:10D3B00099421BDA089B099A03EB0616314603EBE8
:10D3C000021206F11000FFF723FBEEB9099B0133AF
:10D3D000099311E008A8FFF745FB0028D6D108A85B
:10D3E000FEF7FFFF204615B0BDE8F08F013108A819
:10D3F000FFF738FB0028DDD10FA800F055FC0BA883
:10D4000000F052FC1435C6E730460FA900F0B5FC19
:10D41000DCE700264FF01409CDE90B660D96DDE937
:10D4200008239E427CDA3301D35806930BB90136A8
:10D43000F5E70023079309FB06F30BAD029307A959
:10D4400006A8FFF73CFB82460028F0D04FF000030F
:10D4500001468DF817302846079A0DF11703FFF79C
:10D46000AFFB9DF817700190002F4AD1BDF81C301A
:10D47000CDE91177ADF840304FF6FF73CDF83CA001
:10D48000ADF842301397D5E90132934217DB03F12F
:10D49000010ABAF1000F30DD09FB0AF0FEF712FFB6
:10D4A000834660B3D5E9001209FB0212FFF72CFF97
:10D4B0002868FEF715FFC5F800B0C5F808A02B686E
:10D4C000019A09FB023A6A68514609FB02320AF1E5
:10D4D0001400FFF719FFBAF1000F03D050460FA94F
:10D4E000FFF75CFD6B6801336B6011A8FFF70EFD61
:10D4F0003FB10BA8FFF70AFD71E7BB46D8E701274C
:10D50000F3E7019B2D6809FB0355069B1B782BB99C
:10D51000D8F80030029A13441B7CEB8008358EE764
:10D520002168226062686360A36809920A9A0A937C
:10D53000E368A2600B9A0B932369E2600C9A0C9348
:10D54000636922610D9A0D93039B089162612376B2
:10D55000CFE70000F0B504462646174687B00D46D3
:10D5600068461946FEF7BFF80B4B694646F8043B80
:10D5700003A8FEF7B8F8394603AA3046FFF7F0FED5
:10D5800003A8FEF76FF86846FEF76CF82046034BD9
:10D590002562236007B0F0BDDCF93F0274FB3F0257
:10D5A000F0B50F4685B038461C4916461D460A9C04
:10D5B000FDF73AFFC0B9A4B1294601A8FFF701FD64
:10D5C0002420174901F03EFA054630B101AB32463E
:10D5D0002146FFF7BFFF134B2B6001A8FEF742F86F
:10D5E0002C46204605B0F0BD38460F49FDF71CFF1C
:10D5F00090B9002CF5D0294601A8FFF7E2FC2420C1
:10D60000074901F01FFA05460028E6D032462146B8
:10D6100001ABFFF79FFFE0E70024E2E7F5FA3F02E6
:10D6200068FD3F028CFB3F02F9FA3F02014B024AC0
:10D630001A60704778AE07100AFB3F022DE9F047E9
:10D64000089DD0F8209004460E461746984600F0F4
:10D6500085FF81454DD02B79190704D520466A698D
:10D660005449FFF712FBB8F1000F0DD05B212046A3
:10D67000FFF79AFA41462046FFF787FA236802220D
:10D680002046DB684C4998472B79DA0724D5D5F832
:10D6900008802F21404601F08AFB08B100F1010803
:10D6A00041462046FFF771FA2B799B0708D53A21AE
:10D6B0002046FFF779FA2046EA684049FFF7E5FA85
:10D6C0002A79236812F0040F20464FF00202DB682B
:10D6D00014BF3B493B4998472B7958071DD5296909
:10D6E0000B461A4613F8010B60B1202808D11946E1
:10D6F000F7E7354800F083F90028ACD0BDE8F087A3
:10D700002828EED12368521A2046DB689847236800
:10D7100004222046DB682D49984700213846FEF751
:10D720008FFC01462046FFF730FA2368022220468C
:10D73000DB68244998471EB131462046FFF725FA99
:10D740002B7913F0300F2CD023682149DB6802229B
:10D75000204698472B79D9060AD523680722204608
:10D760001C49DB6898472046AA691B49FFF78DFAD8
:10D770002B799A0611D5DB0605D5236802222046AF
:10D78000DB680F4998472368204614490A22DB6862
:10D7900098472046E969FFF7F8F95D212046FFF731
:10D7A00003FA23682046BDE8F0470222DB680C49F3
:10D7B000184700BF0EFB3F0215FB3F0230FC3F0243
:10D7C00018FB3F021DFB3F02A4AE07101BFB3F02EC
:10D7D00020FB3F0223FB3F022BFB3F022EFB3F02BD
:10D7E00039FB3F022DE9F0410446076A0D46164613
:10D7F00000F0B4FE874207D0206A3246036829460B
:10D80000BDE8F041DB681847034800F0F8F800284D
:10D81000F2D0BDE8F08100BFA4AE07102DE9F043BF
:10D8200085B0D0F8209005460F4690461E460C9CC9
:10D8300000F094FE814505D1494800F0E0F8002849
:10D8400040F08A804FF000092B6A464A6846CDE9CD
:10D85000023900928DF80490FFF72BF849464046B4
:10D86000FEF7EEFB8046404901226846FFF7B0F81C
:10D870004146FFF77CF93FB13C4901226846FFF77A
:10D88000A7F83946FFF773F93EB1394901226846D6
:10D89000FFF79EF83146FFF76AF92379DF070ED5C7
:10D8A000A6682F21304601F082FA00B1461C3149AA
:10D8B00001226846FFF78CF83146FFF758F92379C3
:10D8C0009E0707D52C4902226846FFF781F8E168D8
:10D8D000FEF7FCFF2379580714D5266933461F4607
:10D8E00013F8012B2AB1202A01D11E46F7E7282A76
:10D8F000F5D1022221496846FFF76AF83146BA1B82
:10D90000FFF776F82379190707D51D4901226846E4
:10D91000FFF75EF86169FEF7EBFF2379DA0607D5BA
:10D92000184904226846FFF753F8A169FEF7CEFFB5
:10D9300023799B0607D5144906226846FFF748F865
:10D94000E169FFF714F96846FEF79DFF286A022295
:10D9500003680E49DB68984705B0BDE8F08300BF57
:10D96000A4AE07105CFB3F02EBFA3F0279F93F02DD
:10D97000CBFE3F023CFB3F023EFB3F0241FB3F022E
:10D9800044FB3F0246FB3F024BFB3F0239FB3F0299
:10D99000002340681A46FEF7D1BB002202214068EE
:10D9A000FEF7E8BB002240681146FEF7D5BB002217
:10D9B00040681146FEF7ECBB002340681A46194642
:10D9C000FEF7F4BB002340681A461946FEF7FCBB7D
:10D9D00000214068FEF73EBC00214068FEF748BCCD
:10D9E0000022406881F00101FEF7FCBB0022406884
:10D9F000FEF714BC002240681146FEF71DBC002251
:10DA000040681146FEF7FCBB00214068FEF74CBCA5
:10DA10002DE9F04395B014460D460746FEF7CCFDC0
:10DA200000211C220DA8009101F057F94023204647
:10DA30000C9300216B460CAAFEF75EF90446002801
:10DA40004BD1024601216868FEF7A2FB0221804605
:10DA500022466868FEF79CFB21468146009E002E08
:10DA60003BD0002939D17368022B03D00A2B11D087
:10DA7000F669F4E7B8F1000FFAD0716906A804312D
:10DA80003C1D07ADFEF7DCFD0FCD0FC42B684146F2
:10DA90002370EDE7B9F1000FEAD0102201A87469F4
:10DAA00001F01BF9062301AD8DF8143004F10803D1
:10DAB00018342A4618685968083303C2A342154629
:10DAC000F7D101A906A83C1D07ADFEF783FD0FCDD8
:10DAD0000FC42B6849462370CAE70098FEF7FEF88A
:10DAE000384615B0BDE8F083033802289ABF024BD0
:10DAF00053F8200001487047CCFB3F02A4AE07104A
:10DB000008B500224068FEF7C1FBBDE80840FFF7FA
:10DB1000EBBF0000024B034A1A6000225A607047B4
:10DB2000A4AE0710E0FB3F02F8B506460D46002400
:10DB30008F18BD420CD0336830469B6815F8011B26
:10DB40009847031E01DB1C44F3E7002C08BF1C466A
:10DB50002046F8BD13B50446084659B10191FDF7BA
:10DB60006DFC0246204623680199DB6802B0BDE8DF
:10DB70001040184702B010BD03689B68184738B5BD
:10DB80000D210546FFF7F8FF0A2104462846FFF756
:10DB9000F3FF204438BD0023012A98BF0A2230B584
:10DBA0008BB08DF8243009AC0D46B1FBF2F101FBCE
:10DBB000125303F0FF03092B94BF30333733DBB22A
:10DBC000AA4204F8013DEFD92146FFF7C3FF0BB08D
:10DBD00030BD2DE9F04186B000AF05460E46381D38
:10DBE000142114463B60FEF797FB13280ED82846F5
:10DBF000391DFFF7AFFF04461EB12846FFF7BFFFF0
:10DC0000044420461837BD46BDE8F08100F1080302
:10DC100023F00703E846ADEB030D2246411C3B68A9
:10DC20006846FEF779FB69462846FFF793FF0446EE
:10DC3000C546E1E70022014B9A607047ACAE071081
:10DC400010B5044608462170FEF7B8F800232046B8
:10DC5000636010BD10B50446FDF752FFE060236815
:10DC600020465B699847002808DAFDF749FFE3681A
:10DC7000C01AA3689842F2D34FF0FF3010BD2DE9CF
:10DC8000F04107460C460D468E18B542A5EB040838
:10DC900007D03846FFF7DEFF031E02DB05F8013B25
:10DCA000F3E74046BDE8F08110B504460068FEF792
:10DCB00017FB204610BD10B50446006808B1FEF7FA
:10DCC0000FFB0023C4E90133236010BD38B50446BF
:10DCD0000D4600680131FEF711FB10B1C4E90005E3
:10DCE000012038BD10B50368044623B143688B4258
:10DCF00001D3012010BD2046FFF7E8FF0028F9D02E
:10DD0000A368002BF5D122681370F2E737B50D46F2
:10DD1000114601920446FFF7E5FF019A28B9204613
:10DD2000FFF7C9FF204603B030BD2946A260206836
:10DD300000F0ACFF00212268A368D154F2E738B5A7
:10DD4000054600680C4670B16A688B689A4208D331
:10DD5000096831B101F00FF8A368AB600023A3603C
:10DD600038BDFEF7BDFA23682B6063686B60A3685B
:10DD7000AB600023C4E90033F1E7002310B504468B
:10DD8000C0E9003383600373FFF7D9FF204610BD5D
:10DD9000884210B5044605D00B682BB18A68194635
:10DDA000FFF7B4FF204610BDFFF785FFFAE7002319
:10DDB00010B50446C0E9003383600373FFF7E8FF42
:10DDC000204610BD02220020044B1A60044B054A75
:10DDD000C3E900009A60FEF74FB900BFC8AE071054
:10DDE000BCAE07100000FFFF13B503688DF80710E5
:10DDF0001C6C01224FF0FF330DF10701A04702B068
:10DE000010BD10B403681C6C4FF0FF33A4465DF8DE
:10DE1000044B604713B5134602688DF80710146C65
:10DE20000DF107010122A04702B010BD10B54369F2
:10DE30000446B3F88620B3F884309A4208D0636968
:10DE4000B3F88420511CA3F884101344187910BD32
:10DE500003681B6998470028F1D14FF0FF30F6E7BF
:10DE6000704743691868C043C00F7047704700008F
:10DE7000064B10B5994200F10C0405D0084600F09D
:10DE8000E5FD002808BF0024204610BD4CFA3F02E3
:10DE900010B50446AC21FDF7FAFA204610BDAC21BE
:10DEA000FDF7F5BA2DE9F0414FF000081C4686B0A9
:10DEB000C0F8048005460E4617464146102202A8C7
:10DEC00000F00BFF631C09D04FF47A73B4FBF3F23C
:10DED00003FB12445C43CDE90228049410236869D3
:10DEE000009341F2050240F6FF71006802ABFDF7B6
:10DEF00011FF002807DAFEF71DFA036800206B60A7
:10DF000006B0BDE8F081686900233A4631460068F2
:10DF1000FDF738FF031EEEDB1846F1E738B50B4B73
:10DF20008469054603607CB16368013B63605BB94B
:10DF3000236820469B689847A368013BA3601BB9F0
:10DF400023682046DB689847284638BD58FC3F02C6
:10DF500010B50446FFF7E2FF20461C21FDF797FAB3
:10DF6000204610BD30B5044687B06846FEF768FB12
:10DF700001AD04340FCD0FC42B68237007B030BD42
:10DF800070B5044606464D69044B8C3544F8043B95
:10DF90000FCD0FC42B683046237070BDCCFA3F0202
:10DFA0002DE9F0430D4600249846036893B01B6B9F
:10DFB00006461746984728466B4622462146009457
:10DFC000FDF79AFE0546002863D1009B002B4BD03D
:10DFD0005B69002B48D006A8FEF7EEFA009B5C694F
:10DFE0006378022B04D1211D06A8FFF7BBFF26E0B2
:10DFF0000A2B24D11122294601A800F06EFEA36845
:10E00000002B38D004F108030DF1040C18346246DB
:10E0100018685968083303C2A3429446F7D106230F
:10E0200001A90CA88DF8143007ACFEF7D3FA0DF156
:10E03000340CBCE80F000FC4DCF80030237006A8D5
:10E04000FEF7DAFA80B133680DACD3F82490124BA6
:10E0500007AD0C930FCD0FC42B683A4623703046A2
:10E0600043460CA9C84705460098FDF737FE2846E9
:10E0700013B0BDE8F083E368002BC3D14FF6FF7007
:10E08000D4F81090FDF70EFE8145BBD104F11401C8
:10E09000AAE72546E8E700BFCCFA3F0238B5436956
:10E0A00005461A68002A10DAB3F88620B3F88430DF
:10E0B0009A420AD103681B699847044628B92B681D
:10E0C00028461B6B9847204638BD0120FCE710B559
:10E0D00043690446B3F88620B3F884309A4205D0E9
:10E0E0006369B3F884201344187910BD03681B6971
:10E0F00098470028F4D14FF0FF30F6E7F8B54369B0
:10E100001746B3F88620B3F8843005469A420E4687
:10E1100016D069693046B1F88430B1F88640E41A07
:10E12000BC4228BF3C4604332246194400F0AEFDF1
:10E130006A69B2F884302344A2F884302046F8BDDE
:10E1400003681B6998470028E3D14FF0FF34F5E7D7
:10E1500000234269A2F884304269A2F886307047F1
:10E16000F0B50C461F4603688BB01B6B0546164680
:10E170009847237D0622042B0CBF02200A20012190
:10E18000FDF70EFE6B6918606B691B68002B07DAE0
:10E190002B6828461B6B0024984720460BB0F0BD27
:10E1A0002846FFF7D5FFB7B1002303A9F8B20393C0
:10E1B000ADF81030FDF75AFD0028E9D10623686953
:10E1C000009341F20B0240F6FF71006803ABFDF7CC
:10E1D000A1FD0028DCD11C22002103A800F07DFD58
:10E1E000237D042B1DD14FF407733046ADF80C305E
:10E1F000FDF766FDADF80E006068FDF753FD049075
:10E200006B691C22186803A9FDF7A0FD0028BFD187
:10E210006D6904348C350FCC0FC5236801242B7035
:10E22000BBE740F61C233046ADF80C30FDF748FD47
:10E2300005AEADF80E00231D04F114073246186830
:10E240005968083303C2BB421646F7D1D8E700002D
:10E2500030B542690446B2F886308BB02BB1B2F8C3
:10E2600084209A4201D1FFF773FF61690868002892
:10E2700018DBB1F886507F2D14D804310823C5F17E
:10E2800080022944FDF770FD002813DD6369B3F8AF
:10E2900086200AB9A3F884206369B3F88620104465
:10E2A000A3F886006369B3F88600B3F88430C01A17
:10E2B0000BB030BDFEF73EF803680B2BF2D0FEF733
:10E2C00039F803680B2BEDD020230025CDE902356A
:10E2D000FEF730F8036802AA0193084B3220084980
:10E2E00000932B46FDF79EFE63691868FDF720FD3D
:10E2F0004FF0FF3263691A60D4E700BF23FC3F028E
:10E300001CFC3F0210B5436904461868002801DB75
:10E31000FDF70EFD4FF0FF32636900211A6060695E
:10E3200011228C3000F0D9FC2046BDE81040FFF7E8
:10E330000FBF002310B504460160C0F88430883058
:10E34000FEF73AF9204610BD00234FF47A7273B5F8
:10E35000C0E901320E4A0361026043610446AC2009
:10E360000191FDF790F8051E05F10C0608D0012378
:10E37000C5E90133074B304601992B60FFF7D9FF00
:10E380002046C4E90565FFF7E3FE02B070BD00BF9B
:10E3900058FC3F023CFC3F0210B504464FF0FF31F1
:10E3A000FFF7D2FF204610BD10B5044600680028D4
:10E3B00001DBFDF7BDFC204610BD0C30FFF7F4BFBC
:10E3C000024B1A68024B1A60704700BF90AC0710EE
:10E3D000CCAE071070474174704708B5007CFDF75C
:10E3E0006BFD20EAE07008BD08B5007CFDF71EFD5E
:10E3F00020EAE07008BD08B5007CFDF733FD40EA77
:10E40000E07008BD08B5007CFDF71EFD40EAE07035
:10E4100008BD007CFDF734BD37B5457C04462DB101
:10E42000207C03B0BDE83040FDF7F2BC007C0191D8
:10E43000FDF742FD00280199F2DC284603B030BD0B
:10E4400010B504461421FDF722F8204610BD000047
:10E4500010B54FF47A730446084611460022C4E909
:10E460000123044B2074236001236374FDF740FDF6
:10E47000204610BDC4FC3F020023007CFDF72ABDEE
:10E480000022FFF7F9BF007CFDF7B4BC007CFDF76C
:10E4900005BD417470477047704708B50021007C86
:10E4A000FDF77AFD40EAE07008BD08B50121007C67
:10E4B000FDF772FD40EAE07008BD08B5007CFDF78D
:10E4C0005DFD20EAE07008BD08B5007CFDF748FD61
:10E4D00020EAE07008BD13B50446007C0191FDF709
:10E4E0004DFD0028019901DC607C20B1207CFDF706
:10E4F00061FD20EAE07002B010BD007CFDF768BD50
:10E5000010B504461421FCF7C2FF204610BD0000E0
:10E5100010B54FF47A73044608460021C4E901138C
:10E52000044B20742360012311466374FDF7EEFC55
:10E53000204610BDF8FC3F020022007CFDF7F4BC31
:10E54000007CFDF7FFBC007CFDF750BD10B5044614
:10E550001422002100F0C1FB204610BD10B588B088
:10E5600003A8FFF7F3FF0C4CD4E88F1F11F0010153
:10E570000FD120460191FCF799FF019948B103AAF8
:10E580000648FFF7C5FF2046FCF795FF044800F05A
:10E590006FFB024808B010BDD0AE0710D4AE071014
:10E5A00007ED3F02002240681146FDF7F1BD002251
:10E5B00040681146FDF724BE002240681146FDF771
:10E5C0003BBE00224068FDF729BE0022406881F072
:10E5D0000101FDF707BE002340681A461946FDF702
:10E5E000F3BD002340681A461946FDF7DFBD00223F
:10E5F00040681146FDF7B0BD002202214068FDF7DA
:10E60000B9BD002340681A46FDF798BD0422024BAD
:10E610005A60024A1A607047E8AE07102CFD3F02AC
:10E62000014B1860704700BF94AC071008B50F4B42
:10E6300043B1FFF793FF03681B699847002801DD8A
:10E6400000E000BF0A4B43B100F06CF903681B699E
:10E650009847002801DD00E000BF064B0BB100F039
:10E66000A7F9054B0BB100F0D9F908BD0000000077
:10E6700000000000000000000000000008B5FFF7E7
:10E68000D5FFFDF73DFA014B186008BD04AF071038
:10E690000548064A08B5121A054900F0F7FA054B75
:10E6A000054A1A6008BD00BF00B4071004B4071083
:10E6B00000F85F0800B407101E1C279A002307B556
:10E6C0001A466FF077010093FDF70EFD03B05DF879
:10E6D00004FB000007B543880A2B08D0502B0BD150
:10E6E000094B1B684BB103B05DF804EB1847FFF70B
:10E6F000E5FF03B05DF804FB00231A466FF07701D5
:10E700000093FDF7F1FCF4E7F4AE0710002110B51B
:10E710001148FDF72BFE114B1A68114B9A420CBFA2
:10E72000012200220F4B1A7001D0FFF7B1FFFDF755
:10E73000CBF9044600F0DAFA0B4B13B1204600E0A7
:10E7400000BF00210848FDF7EBFCBDE810400021A8
:10E750000648FDF7BBBC00BF91EE3F0200B40710B6
:10E760001E1C279AF0AE07100000000045EF3F0284
:10E770001B2837B5044602D9002003B030BDA0F1F4
:10E780000F03022B0BD9012821D800F077F80021C4
:10E79000007CFDF74FFA80F00100C0B2EDE7114DAB
:10E7A000D5E88F1F11F001010BD128460191FCF72C
:10E7B0007DFE019928B10C48FFF742FA2846FCF784
:10E7C0007AFE094B1878FDF707FB0028D4D1083CE6
:10E7D000012C05D800F0A6F8007CFDF75FFBDAE716
:10E7E0000120CAE7F8AE0710FCAE07101B2838B5A9
:10E7F00004460D460AD8FF2908D0FFF7B9FF28B113
:10E8000029462046BDE83840FDF796B938BD38B5F1
:10E8100004460D46FDF79EF9FF2810D0062804D8BF
:10E820004D2323FA00F0C30709D42046FFF7A0FFC9
:10E8300028B129462046BDE83840FDF799B938BDD2
:10E84000FDF7A4B97047000038B50A4B04460360D1
:10E85000012309494361202000F0F6F8202560607B
:10E8600005492846A56000F0EFF8C4E903052046F5
:10E8700038BD00BF1800010068FD3F0230B50E4DE5
:10E8800087B0D5E88F1F11F0010411D12846FCF79D
:10E890000DFE68B16846FFF7D7FF6A462146074874
:10E8A000FDF724FE2846FCF706FE054800F0E0F9D7
:10E8B000024807B030BD00BF08AF07100CAF07100B
:10E8C000B5F03F027047000038B5142504462A46CB
:10E8D000002100F002FA25804025074928462581BD
:10E8E000258200F0B1F804496060284600F0ACF8D9
:10E8F000E060204638BD00BF68FD3F0270477047AA
:10E9000010B50446FFF7E0FF204610BD10B50446E1
:10E91000FFF7DAFF204610BD10B50446FFF7D4FF1D
:10E92000204610BD30B50E4D87B0D5E88F1F11F0D1
:10E93000010411D12846FCF7B9FD68B101A8FFF721
:10E94000DFFF214601AA0748FFF782FD2846FCF7B2
:10E95000B2FD054800F08CF9024807B030BD00BF99
:10E9600020AF07102CAF071035F13F0210B50D4C4A
:10E9700086B0D4E88F3FDB0711D42046FCF796FD24
:10E9800068B101A8FFF7C2FF012101AA0648FFF7FD
:10E990005FFD2046FCF78FFD044800F069F902484E
:10E9A00006B010BD24AF071040AF07106FF13F0253
:10E9B00010B5FFF7DBFF074B044653B1FFF766FDC9
:10E9C00038B1236820461B699847002801DD00E024
:10E9D00000BF10BD0000000010B50D4C86B0D4E89B
:10E9E0008F3FDB0711D42046FCF760FD68B101A81A
:10E9F000FFF792FF022101AA0648FFF729FD2046F2
:10EA0000FCF759FD044800F033F9024806B010BD88
:10EA100028AF071054AF07106DF13F0210B5FFF794
:10EA2000DBFF074B044653B1FFF730FD38B12368D5
:10EA300020461B699847002801DD00E000BF10BD9B
:10EA400000000000FCF71FBDFCF71FBD014900F0EE
:10EA5000F9B800BF84FD3F027FB50024102315469E
:10EA60001268CDE902340368CDE900449E696B4623
:10EA7000B0479DF8043003F00603062B05BF009B4A
:10EA8000012020462B6004B070BD0098904214BF56
:10EA90000120062070470000034B10B504460360B8
:10EAA00000F0CDF8204610BDC4FD3F0210B504466D
:10EAB000FFF7F2FF08212046FCF7E9FC204610BDD5
:10EAC0002DE9F041DDF818801F4606461546DDE9C0
:10EAD0000834984507D1079900F0B4F818B165716A
:10EAE0000020BDE8F0813946304600F0ABF8002840
:10EAF000F6D00123C4F800802571A371F0E738B582
:10EB000015461C4600F09EF820B108232560E360FE
:10EB10000623237138BD73B505460C461E46019287
:10EB200000F090F850B9032E08D823682946019ABE
:10EB300020465B6902B0BDE87040184702B070BD66
:10EB4000034B10B504460360FFF7A6FF204610BD37
:10EB500024FE3F0210B50446FFF7F2FF0C212046C9
:10EB6000FCF795FC204610BDF7B5089F05460E46FC
:10EB7000144697420AD0A868314602680897156A79
:10EB80002246AC4603B0BDE8F04060471946019309
:10EB900000F058F8019B0028EDD0062003B0F0BD2E
:10EBA0002DE9F14F0D461946814617469846DDE995
:10EBB0000A4BDDE90CA600F045F890B1002D346059
:10EBC000377109DB61198A450CBF06210121B1713A
:10EBD000002001B0BDE8F08F0235F9D10123B371F7
:10EBE000F6E7544506D15946484600F02BF808B1DF
:10EBF0007771EDE7D9F808003A4629460368CDE970
:10EC00000CA6CDE90A4BDC694346A44601B0BDE839
:10EC1000F04F60472DE9F04107460C4615461E4669
:10EC2000FFF76DFF48B9B8682A46214603689F6917
:10EC30003346BC46BDE8F0416047BDE8F08170470F
:10EC400000207047814208B50ED0406803782A2B17
:10EC50000CD049680B782A2B08BF0131FCF7E4FB84
:10EC6000B0FA80F0400908BD0120FCE70020FAE777
:10EC7000002301461A46184600F03AB9024B1844E0
:10EC8000407800F097007047CDFE3F020A44431ED3
:10EC9000914200D1704710B511F8014B914203F831
:10ECA000014FF9D110BD884210B501EB020402D921
:10ECB0008442234607D8431EA14208D011F8012BF5
:10ECC00003F8012FF8E7024401468A4200D110BD43
:10ECD00013F8014D02F8014DF7E702440346934251
:10ECE00000D1704703F8011BF9E7000038B5104B5D
:10ECF00004461D68AB6BB3B91820FDF7E3FA024672
:10ED0000A86320B90B4B42210B48FDF721FB0B49AF
:10ED10000B4BC0E900130B4B002183600B23838155
:10ED20000120C2E90401AB6B00221C615A6138BDAD
:10ED300094AC07105DFE3F0274FE3F020E33CDAB74
:10ED400034126DE6ECDE0500C9B2034610F8012B63
:10ED50001AB18A42F9D118467047002918BF00231A
:10ED6000F9E710B50446FFF7EFFF18B92046FCF7A6
:10ED700065FB204410BD034611F8012B03F8012B5D
:10ED8000002AF9D1704710B57AB1034601398418C9
:10ED900013F8010B11F8012F904201D1A34201D1C8
:10EDA000801A10BD0028F3D1FAE71046F9E738B50C
:10EDB00003460C4669B9BDE83840FFF7C5BF431CA0
:10EDC000054621461846FFF7BFFF0028F7D1284621
:10EDD00038BD0025F5E70000012B2DE9F04701D0F3
:10EDE000242B06D9FDF7A6FA162303600020BDE800
:10EDF000F0870D46DFF8E0C02E4615F8014B14F8F9
:10EE00000C7017F00807F7D12D2C32D12C78012780
:10EE1000B51C002B5BD0102B09D1302C07D12C78DE
:10EE200004F0DF04582C4DD16C781023023507F123
:10EE300000484FF0000C08F1FF386646B8FBF3F9C4
:10EE400003FB198AA4F1300EBEF1090F16D87446DF
:10EE5000A34224DDBCF1000F1EDBB1451CD301D160
:10EE6000A24519DB06FB03464FF0010C15F8014BD8
:10EE7000E8E72B2C04BF2C78B51CCAE7A4F1410E9F
:10EE8000BEF1190F01D8373CE2E7A4F1610EBEF1E3
:10EE9000190F04D8573CDBE74FF0FF3CE6E7BCF125
:10EEA000000F05DA22234646036042B930469EE74A
:10EEB00007B17642002AF9D0BCF1000F00D0691EDC
:10EEC0001160F3E73024002BB1D10823AFE7302CD9
:10EED000A5D00A23ABE700BFCEFE3F0213460A4689
:10EEE000014602480068FFF777BF00BF94AC0710E7
:10EEF0002DE9F843DFF8BC8006461F460D46D8F8DA
:10EF00000000914600F058F8264B1C6834B9264C96
:10EF10001C60264B13B11B68C4F8883063681F2B34
:10EF200007DDD8F8000000F049F84FF0FF30BDE8E9
:10EF3000F8835EB3D4F8880088B91D4B23B9D8F89C
:10EF4000000000F03AF8F0E74FF48470FDF7BAF9EA
:10EF50000028F4D00023C0E94033C4F88800636877
:10EF60000122022E40F8239002FA03F200EB830103
:10EF7000D0F8003143EA0203C0F80031C1F88070D4
:10EF800002BFD0F804311343C0F804316368D8F8E5
:10EF900000005A1C0233626044F8235000F00EF85F
:10EFA0000020C4E7F4AF071068AF071000000000AE
:10EFB00035CB3F02F8AC0710704770477047000030
:10EFC000BDBC3F02E5BC3F02E9BC3F0200000000BF
:10EFD00043616C6C206F6E2070757265207669726B
:10EFE0007475616C005468652064697374616E6344
:10EFF0006520746F206F62737461636C6573206940
:10F000006E2066726F6E74206F6620756C7472610C
:10F01000736F6E6963312069733A2025302E326632
:10F0200020696E636865730A0054686520646973BB
:10F0300074616E636520746F206F62737461636CBA
:10F04000657320696E2066726F6E74206F6620751E
:10F050006C747261736F6E6963322069733A202534
:10F06000302E326620696E636865730A00546865E5
:10F070002064697374616E636520746F206F6273BE
:10F080007461636C657320696E2066726F6E7420A4
:10F090006F6620756C747261736F6E69633120697D
:10F0A000733A2025302E326620636D0A005468655D
:10F0B0002064697374616E636520746F206F62737E
:10F0C0007461636C657320696E2066726F6E742064
:10F0D0006F6620756C747261736F6E69633220693C
:10F0E000733A2025302E326620636D0A0064656E07
:10F0F0007665725F7075636B657200696F2E61640F
:10F100006166727569742E636F6D0061696F5F442B
:10F110006C587630366A41794A617A354E73563585
:10F120006A31484A355458564B4C750064656E76C2
:10F1300065725F7075636B65722F66656564732FAA
:10F1400073706565640064656E7665725F70756383
:10F150006B65722F66656564732F636F756E74657A
:10F16000720000000000000000000000000000002D
:10F170000000000005BD3F022DBD3F020000000061
:10F180000000000031BD3F0265BD3F02ADDE3F0221
:10F1900055E03F02000000000000000000000000F9
:10F1A0000000000005BD3F0205BD3F0205BD3F0256
:10F1B00005BD3F0205BD3F02000000000000000049
:10F1C0007BC13F0207C23F0227C13F02D5C13F02B8
:10F1D00015C23F023BC13F027DC13F02000000005B
:10F1E000000000000000000000000000E7CC3F022B
:10F1F000DDCC3F02D3CC3F02C9CC3F02BDCC3F02A5
:10F20000B1CC3F0241E23F0249E23F02A5CC3F02BE
:10F210009DCC3F0293CC3F0289CC3F0271E33F0279
:10F2200079E23F0281E23F0200000000000000009E
:10F2300005CD3F024FCD3F0227CD3F0207CD3F0214
:10F240002FCD3F0237CD3F023FCD3F0247CD3F029A
:10F25000EFE43F020000000000000000C5CD3F02C7
:10F26000B5CD3F02B7CD3F02257500752530347806
:10F2700000626175640053657269616C0053657268
:10F2800069616C31004A534F4E53747265616D4C25
:10F290006F6748616E646C65720061707000253044
:10F2A00031307520005D20002C200028293A2000F4
:10F2B000205B00636F6465203D2000256900646564
:10F2C0007461696C73203D20000D0A0066006C6E4D
:10F2D00000666E007400636F646500646574616944
:10F2E0006C00000000000000000000002DD33F0271
:10F2F00053D33F0205D33F02FFCE3F020000000080
:10F3000000000000B9D73F02D1D73F02ADDE3F0277
:10F3100055E03F020000000000000000E5D73F027A
:10F32000F9D73F028DE03F0219D33F0200000000F1
:10F33000000000002BD33F0261D33F0211DE3F02E9
:10F340001BD33F02000000000000000029D33F0251
:10F350006FD33F0221D73F0291D33F0250AE071037
:10F36000E8AE0710A4AE0710000000000000000087
:10F3700001E23F020BE23F0215E23F021FE23F02C1
:10F3800029E23F0235E23F0241E23F0249E23F0209
:10F3900051E23F025DE23F0265E23F026FE23F025F
:10F3A00071E33F0279E23F0281E23F0277697269CD
:10F3B0006E670072656376206572726F72203D2001
:10F3C000256400000000000000000000DDE63F02B0
:10F3D00001E73F022BEC3F020FE73F02E1E63F026D
:10F3E00000000000000000008DE73F02C1E73F027F
:10F3F00059E63F0273E63F02C1EA3F029DE63F0243
:10F400003FE93F02D1E63F02EFE43F02D1E93F028C
:10F4100011E83F026DE93F0275EB3F020DE93F0243
:10F42000D3E63F0285E63F0215E73F02F1E73F02E0
:10F4300025592D256D2D25645425483A254D3A250D
:10F4400053257A0061736374696D650000000000E4
:10F450000000000045EC3F02B1EC3F0289EC3F02A6
:10F4600099E33F0259EC3F0275EC3F0267EC3F0223
:10F4700083EC3F02EFE43F0247EC3F024BEC3F02DC
:10F48000000000000000000009ED3F0271ED3F02A6
:10F4900047ED3F0299E33F0239ED3F020BED3F029A
:10F4A0001BED3F026BED3F02EFE43F022BED3F020D
:10F4B00003ED3F02000000000000000073EE3F0279
:10F4C00069EE3F025FEE3F0215EE3F0253EE3F0250
:10F4D00047EE3F0241E23F0249E23F023BEE3F027C
:10F4E00033EE3F0229EE3F021FEE3F0271E33F027F
:10F4F00079E23F0281E23F0200537431395F537079
:10F500005F6D616B655F7368617265645F7461678D
:10F5100000000000C4FD3F0269FD3F0224FE3F02DF
:10F5200098FD3F0248FE3F024E31305F5F637878BE
:10F53000616269763131375F5F636C6173735F74E9
:10F540007970655F696E666F45000000000000001D
:10F550008CFD3F0209F33F021DF33F02B1F43F026D
:10F56000B1F43F0287F33F02C9F23F026FF33F025B
:10F5700031F33F02FBF23F0224FE3F02F4FD3F0263
:10F580008CFD3F024E31305F5F637878616269764F
:10F590003132305F5F73695F636C6173735F74797D
:10F5A00070655F696E666F45000000000000000036
:10F5B000E8FD3F02B1F33F02C5F33F02B1F43F0261
:10F5C000B1F43F0287F33F02C9F23F0285F43F02E4
:10F5D00011F43F02D9F33F02C4FD3F0250FE3F0247
:10F5E000537439747970655F696E666F0052454572
:10F5F0004E54206D616C6C6F632073756363656539
:10F60000646564002F746D702F6A656E6B696E732C
:10F610002D4743432D31302D706970656C696E65DF
:10F620002D34385F32303230313132345F31363060
:10F63000363138303633392F7372632F6E65776CFD
:10F6400069622F6E65776C69622F6C6962632F73D4
:10F6500074646C69622F72616E642E6300002020F6
:10F660002020202020202028282828282020202072
:10F670002020202020202020202020202020881032
:10F680001010101010101010101010101010040492
:10F690000404040404040404101010101010104199
:10F6A000414141414101010101010101010101010A
:10F6B000010101010101010101101010101010429F
:10F6C00042424242420202020202020202020202DA
:10F6D00002020202020202020210101010200000B8
:10F6E000000000000000000000000000000000001A
:10F6F000000000000000000000000000000000000A
:10F7000000000000000000000000000000000000F9
:10F7100000000000000000000000000000000000E9
:10F7200000000000000000000000000000000000D9
:10F7300000000000000000000000000000000000C9
:10F7400000000000000000000000000000000000B9
:10F7500000000000000000000000000000000000A9
:10F76000BDBF3F0279CC3F02F1CC3F0299CD3F02B1
:10F770009DDE3F0285E33F02A5E43F0235E63F02FE
:08F7800031EC3F027DEE3F0277
:10F7880000000002A4FB3F02BCFB3F02B4FC3F02A6
:10F7980098AC071000000000000000000000000006
:10F7A8000000000000000000000000000000000051
:10F7B8000000000000000000000000000000000041
:10F7C8000000000000000000000000000000000031
:10F7D8000000000000000000000000000000000021
:10F7E8000000000000000000000000000000000011
:08F7F80000000000F8AF07104B
:04F800000000000004
:10FFBE000200100000B05F08A8B05F0818B93F0239
:10FFCE0001000A00FFFFFFFFFFFF00000102030414
:10FFDE0005060708090A0B0C0D0E0F10111213144B
:0EFFEE0015161718191A1B1C1D1E1F203E0089
:04FFFC0078563412ED
:04000005085FB018C8
:00000001FF
